{
  "contractName": "Inheritance",
  "abi": [
    {
      "inputs": [],
      "name": "HeirMessage",
      "outputs": [
        {
          "internalType": "string",
          "name": "",
          "type": "string"
        }
      ],
      "stateMutability": "view",
      "type": "function",
      "constant": true
    },
    {
      "inputs": [],
      "name": "MSGFirstHalf",
      "outputs": [
        {
          "internalType": "string",
          "name": "",
          "type": "string"
        }
      ],
      "stateMutability": "view",
      "type": "function",
      "constant": true
    },
    {
      "inputs": [
        {
          "internalType": "address",
          "name": "",
          "type": "address"
        }
      ],
      "name": "Owners",
      "outputs": [
        {
          "internalType": "string",
          "name": "Name",
          "type": "string"
        },
        {
          "internalType": "address",
          "name": "OwnerAddress",
          "type": "address"
        },
        {
          "internalType": "uint256",
          "name": "pingPeriod",
          "type": "uint256"
        },
        {
          "internalType": "uint256",
          "name": "LastPing",
          "type": "uint256"
        },
        {
          "internalType": "string",
          "name": "BriefIPFSHash",
          "type": "string"
        }
      ],
      "stateMutability": "view",
      "type": "function",
      "constant": true
    },
    {
      "inputs": [
        {
          "internalType": "address",
          "name": "",
          "type": "address"
        }
      ],
      "name": "isOwner",
      "outputs": [
        {
          "internalType": "bool",
          "name": "",
          "type": "bool"
        }
      ],
      "stateMutability": "view",
      "type": "function",
      "constant": true
    },
    {
      "inputs": [
        {
          "internalType": "string",
          "name": "_Name",
          "type": "string"
        },
        {
          "internalType": "address[]",
          "name": "_Heirs",
          "type": "address[]"
        },
        {
          "internalType": "uint256",
          "name": "_pingPeriod",
          "type": "uint256"
        },
        {
          "internalType": "string",
          "name": "_BriefIPFSHash",
          "type": "string"
        }
      ],
      "name": "addBriefOwner",
      "outputs": [],
      "stateMutability": "nonpayable",
      "type": "function"
    },
    {
      "inputs": [
        {
          "internalType": "address",
          "name": "owner",
          "type": "address"
        }
      ],
      "name": "getHiers",
      "outputs": [
        {
          "internalType": "address[]",
          "name": "",
          "type": "address[]"
        }
      ],
      "stateMutability": "view",
      "type": "function",
      "constant": true
    },
    {
      "inputs": [
        {
          "internalType": "address",
          "name": "owner",
          "type": "address"
        }
      ],
      "name": "getHash",
      "outputs": [
        {
          "internalType": "string",
          "name": "hash",
          "type": "string"
        }
      ],
      "stateMutability": "view",
      "type": "function",
      "constant": true
    },
    {
      "inputs": [
        {
          "internalType": "address",
          "name": "owner",
          "type": "address"
        }
      ],
      "name": "getName",
      "outputs": [
        {
          "internalType": "string",
          "name": "name",
          "type": "string"
        }
      ],
      "stateMutability": "view",
      "type": "function",
      "constant": true
    },
    {
      "inputs": [],
      "name": "getDiff",
      "outputs": [
        {
          "internalType": "uint256",
          "name": "timeDiff",
          "type": "uint256"
        }
      ],
      "stateMutability": "view",
      "type": "function",
      "constant": true
    },
    {
      "inputs": [],
      "name": "IamAlive",
      "outputs": [],
      "stateMutability": "nonpayable",
      "type": "function"
    },
    {
      "inputs": [],
      "name": "checkOwnersStatus",
      "outputs": [],
      "stateMutability": "nonpayable",
      "type": "function"
    }
  ],
  "bytecode": "0x608060405260405180610100016040528060d28152602001620024cc60d29139600390816200002f9190620002be565b503480156200003d57600080fd5b50620003a5565b600081519050919050565b7f4e487b7100000000000000000000000000000000000000000000000000000000600052604160045260246000fd5b7f4e487b7100000000000000000000000000000000000000000000000000000000600052602260045260246000fd5b60006002820490506001821680620000c657607f821691505b602082108103620000dc57620000db6200007e565b5b50919050565b60008190508160005260206000209050919050565b60006020601f8301049050919050565b600082821b905092915050565b600060088302620001467fffffffffffffffffffffffffffffffffffffffffffffffffffffffffffffffff8262000107565b62000152868362000107565b95508019841693508086168417925050509392505050565b6000819050919050565b6000819050919050565b60006200019f6200019962000193846200016a565b62000174565b6200016a565b9050919050565b6000819050919050565b620001bb836200017e565b620001d3620001ca82620001a6565b84845462000114565b825550505050565b600090565b620001ea620001db565b620001f7818484620001b0565b505050565b5b818110156200021f5762000213600082620001e0565b600181019050620001fd565b5050565b601f8211156200026e576200023881620000e2565b6200024384620000f7565b8101602085101562000253578190505b6200026b6200026285620000f7565b830182620001fc565b50505b505050565b600082821c905092915050565b6000620002936000198460080262000273565b1980831691505092915050565b6000620002ae838362000280565b9150826002028217905092915050565b620002c98262000044565b67ffffffffffffffff811115620002e557620002e46200004f565b5b620002f18254620000ad565b620002fe82828562000223565b600060209050601f83116001811462000336576000841562000321578287015190505b6200032d8582620002a0565b8655506200039d565b601f1984166200034686620000e2565b60005b82811015620003705784890151825560018201915060208501945060208101905062000349565b868310156200039057848901516200038c601f89168262000280565b8355505b6001600288020188555050505b505050505050565b61211780620003b56000396000f3fe608060405234801561001057600080fd5b50600436106100a95760003560e01c80635fd4b08a116100715780635fd4b08a14610190578063888f3521146101c0578063934ea2e2146101dc5780639d453142146101fa578063c9e4500a14610204578063d3ae703c1461020e576100a9565b80630b1bcee7146100ae5780631da0b8fc146100cc5780632f54bf6e146100fc5780633687ff581461012c5780635116912414610160575b600080fd5b6100b661022c565b6040516100c39190611263565b60405180910390f35b6100e660048036038101906100e191906112f0565b610281565b6040516100f391906113ad565b60405180910390f35b610116600480360381019061011191906112f0565b610355565b60405161012391906113ea565b60405180910390f35b610146600480360381019061014191906112f0565b610375565b604051610157959493929190611414565b60405180910390f35b61017a600480360381019061017591906112f0565b6104db565b6040516101879190611533565b60405180910390f35b6101aa60048036038101906101a591906112f0565b6105ab565b6040516101b791906113ad565b60405180910390f35b6101da60048036038101906101d5919061177e565b61067f565b005b6101e4610868565b6040516101f191906113ad565b60405180910390f35b6102026108f6565b005b61020c6109ca565b005b610216610d66565b60405161022391906113ad565b60405180910390f35b6000600160003373ffffffffffffffffffffffffffffffffffffffff1673ffffffffffffffffffffffffffffffffffffffff168152602001908152602001600020600401544261027c9190611868565b905090565b6060600160008373ffffffffffffffffffffffffffffffffffffffff1673ffffffffffffffffffffffffffffffffffffffff16815260200190815260200160002060050180546102d0906118cb565b80601f01602080910402602001604051908101604052809291908181526020018280546102fc906118cb565b80156103495780601f1061031e57610100808354040283529160200191610349565b820191906000526020600020905b81548152906001019060200180831161032c57829003601f168201915b50505050509050919050565b60006020528060005260406000206000915054906101000a900460ff1681565b6001602052806000526040600020600091509050806000018054610398906118cb565b80601f01602080910402602001604051908101604052809291908181526020018280546103c4906118cb565b80156104115780601f106103e657610100808354040283529160200191610411565b820191906000526020600020905b8154815290600101906020018083116103f457829003601f168201915b5050505050908060010160009054906101000a900473ffffffffffffffffffffffffffffffffffffffff1690806003015490806004015490806005018054610458906118cb565b80601f0160208091040260200160405190810160405280929190818152602001828054610484906118cb565b80156104d15780601f106104a6576101008083540402835291602001916104d1565b820191906000526020600020905b8154815290600101906020018083116104b457829003601f168201915b5050505050905085565b6060600160008373ffffffffffffffffffffffffffffffffffffffff1673ffffffffffffffffffffffffffffffffffffffff16815260200190815260200160002060020180548060200260200160405190810160405280929190818152602001828054801561059f57602002820191906000526020600020905b8160009054906101000a900473ffffffffffffffffffffffffffffffffffffffff1673ffffffffffffffffffffffffffffffffffffffff1681526020019060010190808311610555575b50505050509050919050565b6060600160008373ffffffffffffffffffffffffffffffffffffffff1673ffffffffffffffffffffffffffffffffffffffff16815260200190815260200160002060000180546105fa906118cb565b80601f0160208091040260200160405190810160405280929190818152602001828054610626906118cb565b80156106735780601f1061064857610100808354040283529160200191610673565b820191906000526020600020905b81548152906001019060200180831161065657829003601f168201915b50505050509050919050565b6040518060c001604052808581526020013373ffffffffffffffffffffffffffffffffffffffff16815260200184815260200183815260200142815260200182815250600160003373ffffffffffffffffffffffffffffffffffffffff1673ffffffffffffffffffffffffffffffffffffffff16815260200190815260200160002060008201518160000190816107169190611aa8565b5060208201518160010160006101000a81548173ffffffffffffffffffffffffffffffffffffffff021916908373ffffffffffffffffffffffffffffffffffffffff160217905550604082015181600201908051906020019061077a9291906111a3565b50606082015181600301556080820151816004015560a08201518160050190816107a49190611aa8565b509050506002339080600181540180825580915050600190039060005260206000200160009091909190916101000a81548173ffffffffffffffffffffffffffffffffffffffff021916908373ffffffffffffffffffffffffffffffffffffffff16021790555060016000803373ffffffffffffffffffffffffffffffffffffffff1673ffffffffffffffffffffffffffffffffffffffff16815260200190815260200160002060006101000a81548160ff02191690831515021790555050505050565b60038054610875906118cb565b80601f01602080910402602001604051908101604052809291908181526020018280546108a1906118cb565b80156108ee5780601f106108c3576101008083540402835291602001916108ee565b820191906000526020600020905b8154815290600101906020018083116108d157829003601f168201915b505050505081565b6000803373ffffffffffffffffffffffffffffffffffffffff1673ffffffffffffffffffffffffffffffffffffffff16815260200190815260200160002060009054906101000a900460ff16610981576040517f08c379a000000000000000000000000000000000000000000000000000000000815260040161097890611bc6565b60405180910390fd5b42600160003373ffffffffffffffffffffffffffffffffffffffff1673ffffffffffffffffffffffffffffffffffffffff16815260200190815260200160002060040181905550565b60005b600280549050811015610d63576203f48060016000600284815481106109f6576109f5611be6565b5b9060005260206000200160009054906101000a900473ffffffffffffffffffffffffffffffffffffffff1673ffffffffffffffffffffffffffffffffffffffff1673ffffffffffffffffffffffffffffffffffffffff16815260200190815260200160002060030154610a699190611868565b6001600060028481548110610a8157610a80611be6565b5b9060005260206000200160009054906101000a900473ffffffffffffffffffffffffffffffffffffffff1673ffffffffffffffffffffffffffffffffffffffff1673ffffffffffffffffffffffffffffffffffffffff1681526020019081526020016000206004015442610af59190611868565b10610bed5773b3971bcef2d791bc4027bbfedfb47319a4aaaaaa73ffffffffffffffffffffffffffffffffffffffff1663ba3d69d7738447fbb8a19625ed3dd4f3f90c9d00c879b95d9c60028481548110610b5357610b52611be6565b5b9060005260206000200160009054906101000a900473ffffffffffffffffffffffffffffffffffffffff16604051602001610b8d90611e0e565b6040516020818303038152906040526040518463ffffffff1660e01b8152600401610bba93929190611eba565b600060405180830381600087803b158015610bd457600080fd5b505af1158015610be8573d6000803e3d6000fd5b505050505b6001600060028381548110610c0557610c04611be6565b5b9060005260206000200160009054906101000a900473ffffffffffffffffffffffffffffffffffffffff1673ffffffffffffffffffffffffffffffffffffffff1673ffffffffffffffffffffffffffffffffffffffff168152602001908152602001600020600301546001600060028481548110610c8657610c85611be6565b5b9060005260206000200160009054906101000a900473ffffffffffffffffffffffffffffffffffffffff1673ffffffffffffffffffffffffffffffffffffffff1673ffffffffffffffffffffffffffffffffffffffff1681526020019081526020016000206004015442610cfa9190611868565b10610d5057610d0881610df4565b610d4f60028281548110610d1f57610d1e611be6565b5b9060005260206000200160009054906101000a900473ffffffffffffffffffffffffffffffffffffffff16610ef8565b5b8080610d5b90611ef8565b9150506109cd565b50565b60048054610d73906118cb565b80601f0160208091040260200160405190810160405280929190818152602001828054610d9f906118cb565b8015610dec5780601f10610dc157610100808354040283529160200191610dec565b820191906000526020600020905b815481529060010190602001808311610dcf57829003601f168201915b505050505081565b600280549050811015610ef55760026001600280549050610e159190611868565b81548110610e2657610e25611be6565b5b9060005260206000200160009054906101000a900473ffffffffffffffffffffffffffffffffffffffff1660028281548110610e6557610e64611be6565b5b9060005260206000200160006101000a81548173ffffffffffffffffffffffffffffffffffffffff021916908373ffffffffffffffffffffffffffffffffffffffff1602179055506002805480610ebf57610ebe611f40565b5b6001900381819060005260206000200160006101000a81549073ffffffffffffffffffffffffffffffffffffffff021916905590555b50565b600160008273ffffffffffffffffffffffffffffffffffffffff1673ffffffffffffffffffffffffffffffffffffffff16815260200190815260200160002060030154600160008373ffffffffffffffffffffffffffffffffffffffff1673ffffffffffffffffffffffffffffffffffffffff1681526020019081526020016000206004015442610f899190611868565b1015610f9457600080fd5b6003600160008373ffffffffffffffffffffffffffffffffffffffff1673ffffffffffffffffffffffffffffffffffffffff168152602001908152602001600020600501604051602001610fe9929190611ff2565b604051602081830303815290604052600490816110069190611aa8565b5060005b600160008373ffffffffffffffffffffffffffffffffffffffff1673ffffffffffffffffffffffffffffffffffffffff1681526020019081526020016000206002018054905081101561119f5773b3971bcef2d791bc4027bbfedfb47319a4aaaaaa73ffffffffffffffffffffffffffffffffffffffff1663ba3d69d7738447fbb8a19625ed3dd4f3f90c9d00c879b95d9c600160008673ffffffffffffffffffffffffffffffffffffffff1673ffffffffffffffffffffffffffffffffffffffff16815260200190815260200160002060020184815481106110f0576110ef611be6565b5b9060005260206000200160009054906101000a900473ffffffffffffffffffffffffffffffffffffffff16600460405160200161112d9190612088565b6040516020818303038152906040526040518463ffffffff1660e01b815260040161115a93929190611eba565b600060405180830381600087803b15801561117457600080fd5b505af1158015611188573d6000803e3d6000fd5b50505050808061119790611ef8565b91505061100a565b5050565b82805482825590600052602060002090810192821561121c579160200282015b8281111561121b5782518260006101000a81548173ffffffffffffffffffffffffffffffffffffffff021916908373ffffffffffffffffffffffffffffffffffffffff160217905550916020019190600101906111c3565b5b509050611229919061122d565b5090565b5b8082111561124657600081600090555060010161122e565b5090565b6000819050919050565b61125d8161124a565b82525050565b60006020820190506112786000830184611254565b92915050565b6000604051905090565b600080fd5b600080fd5b600073ffffffffffffffffffffffffffffffffffffffff82169050919050565b60006112bd82611292565b9050919050565b6112cd816112b2565b81146112d857600080fd5b50565b6000813590506112ea816112c4565b92915050565b60006020828403121561130657611305611288565b5b6000611314848285016112db565b91505092915050565b600081519050919050565b600082825260208201905092915050565b60005b8381101561135757808201518184015260208101905061133c565b60008484015250505050565b6000601f19601f8301169050919050565b600061137f8261131d565b6113898185611328565b9350611399818560208601611339565b6113a281611363565b840191505092915050565b600060208201905081810360008301526113c78184611374565b905092915050565b60008115159050919050565b6113e4816113cf565b82525050565b60006020820190506113ff60008301846113db565b92915050565b61140e816112b2565b82525050565b600060a082019050818103600083015261142e8188611374565b905061143d6020830187611405565b61144a6040830186611254565b6114576060830185611254565b81810360808301526114698184611374565b90509695505050505050565b600081519050919050565b600082825260208201905092915050565b6000819050602082019050919050565b6114aa816112b2565b82525050565b60006114bc83836114a1565b60208301905092915050565b6000602082019050919050565b60006114e082611475565b6114ea8185611480565b93506114f583611491565b8060005b8381101561152657815161150d88826114b0565b9750611518836114c8565b9250506001810190506114f9565b5085935050505092915050565b6000602082019050818103600083015261154d81846114d5565b905092915050565b600080fd5b600080fd5b7f4e487b7100000000000000000000000000000000000000000000000000000000600052604160045260246000fd5b61159782611363565b810181811067ffffffffffffffff821117156115b6576115b561155f565b5b80604052505050565b60006115c961127e565b90506115d5828261158e565b919050565b600067ffffffffffffffff8211156115f5576115f461155f565b5b6115fe82611363565b9050602081019050919050565b82818337600083830152505050565b600061162d611628846115da565b6115bf565b9050828152602081018484840111156116495761164861155a565b5b61165484828561160b565b509392505050565b600082601f83011261167157611670611555565b5b813561168184826020860161161a565b91505092915050565b600067ffffffffffffffff8211156116a5576116a461155f565b5b602082029050602081019050919050565b600080fd5b60006116ce6116c98461168a565b6115bf565b905080838252602082019050602084028301858111156116f1576116f06116b6565b5b835b8181101561171a578061170688826112db565b8452602084019350506020810190506116f3565b5050509392505050565b600082601f83011261173957611738611555565b5b81356117498482602086016116bb565b91505092915050565b61175b8161124a565b811461176657600080fd5b50565b60008135905061177881611752565b92915050565b6000806000806080858703121561179857611797611288565b5b600085013567ffffffffffffffff8111156117b6576117b561128d565b5b6117c28782880161165c565b945050602085013567ffffffffffffffff8111156117e3576117e261128d565b5b6117ef87828801611724565b935050604061180087828801611769565b925050606085013567ffffffffffffffff8111156118215761182061128d565b5b61182d8782880161165c565b91505092959194509250565b7f4e487b7100000000000000000000000000000000000000000000000000000000600052601160045260246000fd5b60006118738261124a565b915061187e8361124a565b925082820390508181111561189657611895611839565b5b92915050565b7f4e487b7100000000000000000000000000000000000000000000000000000000600052602260045260246000fd5b600060028204905060018216806118e357607f821691505b6020821081036118f6576118f561189c565b5b50919050565b60008190508160005260206000209050919050565b60006020601f8301049050919050565b600082821b905092915050565b60006008830261195e7fffffffffffffffffffffffffffffffffffffffffffffffffffffffffffffffff82611921565b6119688683611921565b95508019841693508086168417925050509392505050565b6000819050919050565b60006119a56119a061199b8461124a565b611980565b61124a565b9050919050565b6000819050919050565b6119bf8361198a565b6119d36119cb826119ac565b84845461192e565b825550505050565b600090565b6119e86119db565b6119f38184846119b6565b505050565b5b81811015611a1757611a0c6000826119e0565b6001810190506119f9565b5050565b601f821115611a5c57611a2d816118fc565b611a3684611911565b81016020851015611a45578190505b611a59611a5185611911565b8301826119f8565b50505b505050565b600082821c905092915050565b6000611a7f60001984600802611a61565b1980831691505092915050565b6000611a988383611a6e565b9150826002028217905092915050565b611ab18261131d565b67ffffffffffffffff811115611aca57611ac961155f565b5b611ad482546118cb565b611adf828285611a1b565b600060209050601f831160018114611b125760008415611b00578287015190505b611b0a8582611a8c565b865550611b72565b601f198416611b20866118fc565b60005b82811015611b4857848901518255600182019150602085019450602081019050611b23565b86831015611b655784890151611b61601f891682611a6e565b8355505b6001600288020188555050505b505050505050565b7f4f6e6c792061204272696566204f776e65722063616e20646f20746869732100600082015250565b6000611bb0601f83611328565b9150611bbb82611b7a565b602082019050919050565b60006020820190508181036000830152611bdf81611ba3565b9050919050565b7f4e487b7100000000000000000000000000000000000000000000000000000000600052603260045260246000fd5b600081905092915050565b7f3000000000000000000000000000000000000000000000000000000000000000600082015250565b6000611c56600183611c15565b9150611c6182611c20565b600182019050919050565b7f2b00000000000000000000000000000000000000000000000000000000000000600082015250565b6000611ca2600183611c15565b9150611cad82611c6c565b600182019050919050565b7f3300000000000000000000000000000000000000000000000000000000000000600082015250565b6000611cee600183611c15565b9150611cf982611cb8565b600182019050919050565b7f4f4e4c5920332044415953204c45465420574520484f504520594f552752452060008201527f4f4b000000000000000000000000000000000000000000000000000000000000602082015250565b6000611d60602283611c15565b9150611d6b82611d04565b602282019050919050565b7f596f7520686176652033206461797320746f2070696e6720796f75277265206160008201527f6c697665206265666f726520776520736861726520796f75722062726965662060208201527f7769746820796f75722048656972730000000000000000000000000000000000604082015250565b6000611df8604f83611c15565b9150611e0382611d76565b604f82019050919050565b6000611e1982611c49565b9150611e2482611c95565b9150611e2f82611ce1565b9150611e3a82611c95565b9150611e4582611d53565b9150611e5082611c95565b9150611e5b82611deb565b9150819050919050565b600081519050919050565b600082825260208201905092915050565b6000611e8c82611e65565b611e968185611e70565b9350611ea6818560208601611339565b611eaf81611363565b840191505092915050565b6000606082019050611ecf6000830186611405565b611edc6020830185611405565b8181036040830152611eee8184611e81565b9050949350505050565b6000611f038261124a565b91507fffffffffffffffffffffffffffffffffffffffffffffffffffffffffffffffff8203611f3557611f34611839565b5b600182019050919050565b7f4e487b7100000000000000000000000000000000000000000000000000000000600052603160045260246000fd5b60008154611f7c816118cb565b611f868186611c15565b94506001821660008114611fa15760018114611fb657611fe9565b60ff1983168652811515820286019350611fe9565b611fbf856118fc565b60005b83811015611fe157815481890152600182019150602081019050611fc2565b838801955050505b50505092915050565b6000611ffe8285611f6f565b915061200a8284611f6f565b91508190509392505050565b7f534f52525920464f52204c4f53532c20534f4d455448494e4720464f5220594f60008201527f5500000000000000000000000000000000000000000000000000000000000000602082015250565b6000612072602183611c15565b915061207d82612016565b602182019050919050565b600061209382611c49565b915061209e82611c95565b91506120a982611ce1565b91506120b482611c95565b91506120bf82612065565b91506120ca82611c95565b91506120d68284611f6f565b91508190509291505056fea2646970667358221220809c64824699177399c378ead11502eee62d5aac55944c0547c04c4fa6885d9c64736f6c63430008110033536f72727920666f7220796f7572206c6f73732c20746865206f776e6572206f66206120627269656620696e636c7564656420796f75206173206f6e65206f662074686569722048656972732e2054686520427269656620697320456e63727970746564207769746820796f7572207075626c6963206b657920736f207468617420796f752063616e20646563727970742069742e206974206973206f6e20495046532c20616e6420796f752063616e2061636365737320697420776974682074686520666f6c6c6f77696e672068617368",
  "immutableReferences": {},
  "source": "pragma solidity 0.8.17;\n\n//import \"@openzeppelin/contracts/access/AccessControl.sol\";\n// PUSH Comm Contract Interface\ninterface IPUSHCommInterface {\n    function sendNotification(\n        address _channel,\n        address _recipient,\n        bytes calldata _identity\n    ) external;\n}\n\ncontract Inheritance {\n    //state variables\n    uint256 constant THREEDAYS = 259200;\n\n    struct BriefOwner {\n        string Name;\n        address OwnerAddress;\n        address[] Heirs;\n        uint256 pingPeriod;\n        uint256 LastPing;\n        string BriefIPFSHash;\n    }\n\n    mapping(address => bool) public isOwner;\n    mapping(address => BriefOwner) public Owners;\n    address[] private ownersList;\n    /*struct Heir{\n        address HierAddress;\n    }*/\n\n    string public MSGFirstHalf =\n        \"Sorry for your loss, the owner of a brief included you as one of their Heirs. The Brief is Encrypted with your public key so that you can decrypt it. it is on IPFS, and you can access it with the following hash\";\n    string public HeirMessage;\n    // events\n\n    //modifiers\n    modifier onlyBriefOwners() {\n        require(isOwner[msg.sender], \"Only a Brief Owner can do this!\");\n        _;\n    }\n\n    //functions\n\n    // adds a new BriefOwner\n    function addBriefOwner(\n        string memory _Name,\n        address[] memory _Heirs,\n        uint256 _pingPeriod,\n        string memory _BriefIPFSHash\n    ) public {\n        Owners[msg.sender] = BriefOwner(\n            _Name,\n            msg.sender,\n            _Heirs,\n            _pingPeriod,\n            block.timestamp,\n            _BriefIPFSHash\n        );\n        ownersList.push(msg.sender);\n        isOwner[msg.sender] = true;\n    }\n\n    // gets the Heirs list for a BriefOwner\n    function getHiers(address owner) public view returns (address[] memory) {\n        return Owners[owner].Heirs;\n    }\n\n    function getHash(address owner) public view returns (string memory hash) {\n        return Owners[owner].BriefIPFSHash;\n    }\n\n    function getName(address owner) public view returns (string memory name) {\n        return Owners[owner].Name;\n    }\n\n    function getDiff() public view returns (uint256 timeDiff) {\n        return block.timestamp - Owners[msg.sender].LastPing;\n    }\n\n    // function only called by owners to update their last ping to signal that they are alive\n    function IamAlive() public onlyBriefOwners {\n        Owners[msg.sender].LastPing = block.timestamp;\n    }\n\n    function checkOwnersStatus() external {\n        for (uint256 i = 0; i < ownersList.length; i++) {\n            // if difference is less than three days notify\n            if (\n                (block.timestamp - Owners[ownersList[i]].LastPing) >=\n                (Owners[ownersList[i]].pingPeriod - THREEDAYS)\n            ) {\n                // send \"YOU ONLY HAVE THREE DAYS TO PING NOTIFICATION\"\n                IPUSHCommInterface(0xb3971BCef2D791bc4027BbfedFb47319A4AAaaAa)\n                    .sendNotification(\n                        0x8447FBb8a19625Ed3dD4F3F90c9D00C879b95D9c, // from channel - recommended to set channel via dApp and put it's value -> then once contract is deployed, go back and add the contract address as delegate for your channel\n                        ownersList[i], // to recipient, put address(this) in case you want Broadcast or Subset. For Targetted put the address to which you want to send\n                        bytes(\n                            string(\n                                // We are passing identity here: https://docs.epns.io/developers/developer-guides/sending-notifications/advanced/notification-payload-types/identity/payload-identity-implementations\n                                abi.encodePacked(\n                                    \"0\", // this is notification identity: https://docs.epns.io/developers/developer-guides/sending-notifications/advanced/notification-payload-types/identity/payload-identity-implementations\n                                    \"+\", // segregator\n                                    \"3\", // this is payload type: https://docs.epns.io/developers/developer-guides/sending-notifications/advanced/notification-payload-types/payload (1, 3 or 4) = (Broadcast, targetted or subset)\n                                    \"+\", // segregator\n                                    \"ONLY 3 DAYS LEFT WE HOPE YOU'RE OK\", // this is notificaiton title\n                                    \"+\", // segregator\n                                    \"You have 3 days to ping you're alive before we share your brief with your Heirs\" // notification body\n                                )\n                            )\n                        )\n                    );\n            }\n\n            // if period passed consider dead\n            if (\n                (block.timestamp - Owners[ownersList[i]].LastPing) >=\n                Owners[ownersList[i]].pingPeriod\n            ) {\n                removeOwner(i);\n                OwnerIsDeceased(ownersList[i]);\n            }\n        }\n    }\n\n    function OwnerIsDeceased(address deceasedOwner) private {\n        require(\n            (block.timestamp - Owners[deceasedOwner].LastPing) >=\n                Owners[deceasedOwner].pingPeriod\n        );\n\n        HeirMessage = string.concat(\n            MSGFirstHalf,\n            Owners[deceasedOwner].BriefIPFSHash\n        );\n        // send notification to Heirs\n        //send the Owners[deceasedOwner].BriefIPFSHash to Owners[deceasedOwner].Heirs[]\n\n        for (uint256 j = 0; j < Owners[deceasedOwner].Heirs.length; j++) {\n            IPUSHCommInterface(0xb3971BCef2D791bc4027BbfedFb47319A4AAaaAa)\n                .sendNotification(\n                    0x8447FBb8a19625Ed3dD4F3F90c9D00C879b95D9c, // from channel - recommended to set channel via dApp and put it's value -> then once contract is deployed, go back and add the contract address as delegate for your channel\n                    Owners[deceasedOwner].Heirs[j], // to recipient, put address(this) in case you want Broadcast or Subset. For Targetted put the address to which you want to send\n                    bytes(\n                        string(\n                            // We are passing identity here: https://docs.epns.io/developers/developer-guides/sending-notifications/advanced/notification-payload-types/identity/payload-identity-implementations\n                            abi.encodePacked(\n                                \"0\", // this is notification identity: https://docs.epns.io/developers/developer-guides/sending-notifications/advanced/notification-payload-types/identity/payload-identity-implementations\n                                \"+\", // segregator\n                                \"3\", // this is payload type: https://docs.epns.io/developers/developer-guides/sending-notifications/advanced/notification-payload-types/payload (1, 3 or 4) = (Broadcast, targetted or subset)\n                                \"+\", // segregator\n                                \"SORRY FOR LOSS, SOMETHING FOR YOU\", // this is notificaiton title\n                                \"+\", // segregator\n                                HeirMessage // notification body\n                            )\n                        )\n                    )\n                );\n        }\n    }\n\n    function removeOwner(uint256 index) internal {\n        if (index >= ownersList.length) return;\n\n        ownersList[index] = ownersList[ownersList.length - 1];\n        ownersList.pop();\n    }\n}\n",
  "sourcePath": "/home/kareemikassab/EthBogota/ETHBogota_LastBrief/contracts/Inheritance.sol",
  "compiler": {
    "name": "solc",
    "version": "0.8.17+commit.8df45f5f.Emscripten.clang"
  },
  "schemaVersion": "3.4.7",
  "updatedAt": "2022-10-09T11:44:15.086Z",
  "networkType": "ethereum",
  "devdoc": {
    "kind": "dev",
    "methods": {},
    "version": 1
  },
  "userdoc": {
    "kind": "user",
    "methods": {},
    "version": 1
  }
}